{
  "contractName": "CoinFlip",
  "abi": [
    {
      "anonymous": false,
      "inputs": [
        {
          "indexed": false,
          "internalType": "bool",
          "name": "done",
          "type": "bool"
        }
      ],
      "name": "balanceUpdated",
      "type": "event"
    },
    {
      "constant": true,
      "inputs": [],
      "name": "random",
      "outputs": [
        {
          "internalType": "uint256",
          "name": "",
          "type": "uint256"
        }
      ],
      "payable": false,
      "stateMutability": "view",
      "type": "function"
    },
    {
      "constant": false,
      "inputs": [
        {
          "internalType": "uint256",
          "name": "decision",
          "type": "uint256"
        }
      ],
      "name": "flip",
      "outputs": [],
      "payable": true,
      "stateMutability": "payable",
      "type": "function"
    },
    {
      "constant": true,
      "inputs": [],
      "name": "getContractValue",
      "outputs": [
        {
          "internalType": "uint256",
          "name": "",
          "type": "uint256"
        }
      ],
      "payable": false,
      "stateMutability": "view",
      "type": "function"
    },
    {
      "constant": false,
      "inputs": [],
      "name": "loadUpContract",
      "outputs": [],
      "payable": true,
      "stateMutability": "payable",
      "type": "function"
    },
    {
      "constant": false,
      "inputs": [],
      "name": "withdrawalAll",
      "outputs": [],
      "payable": false,
      "stateMutability": "nonpayable",
      "type": "function"
    }
  ],
  "bytecode": "0x60806040526001600060146101000a81548160ff021916908315150217905550336000806101000a81548173ffffffffffffffffffffffffffffffffffffffff021916908373ffffffffffffffffffffffffffffffffffffffff1602179055506103fa8061006e6000396000f3fe60806040526004361061004a5760003560e01c8063221e885d1461004f5780635ec01e4d1461007d578063c464a558146100a8578063dc82697c146100b2578063f44b79b3146100dd575b600080fd5b61007b6004803603602081101561006557600080fd5b81019080803590602001909291905050506100f4565b005b34801561008957600080fd5b50610092610160565b6040518082815260200191505060405180910390f35b6100b0610172565b005b3480156100be57600080fd5b506100c7610255565b6040518082815260200191505060405180910390f35b3480156100e957600080fd5b506100f2610274565b005b60023402610100610255565b1015610157576040517f08c379a000000000000000000000000000000000000000000000000000000000815260040180806020018281038252602381526020018061037b6023913960400191505060405180910390fd5b60003490505050565b60006002428161016c57fe5b06905090565b6000809054906101000a900473ffffffffffffffffffffffffffffffffffffffff1673ffffffffffffffffffffffffffffffffffffffff163373ffffffffffffffffffffffffffffffffffffffff1614610217576040517f08c379a000000000000000000000000000000000000000000000000000000000815260040180806020018281038252602881526020018061039e6028913960400191505060405180910390fd5b7f1254048a43a2283f2900f8d5ebbf165a6cc889e8054ffee6bf1b942a429c7e636001604051808215151515815260200191505060405180910390a1565b60003073ffffffffffffffffffffffffffffffffffffffff1631905090565b6000809054906101000a900473ffffffffffffffffffffffffffffffffffffffff1673ffffffffffffffffffffffffffffffffffffffff163373ffffffffffffffffffffffffffffffffffffffff1614610319576040517f08c379a000000000000000000000000000000000000000000000000000000000815260040180806020018281038252602881526020018061039e6028913960400191505060405180910390fd5b3373ffffffffffffffffffffffffffffffffffffffff166108fc61033b610255565b9081150290604051600060405180830381858888f19350505050158015610366573d6000803e3d6000fd5b506000610371610255565b1461037857fe5b56fe436f6e747261637420646f6573206e6f74206861766520656e6f7567682066756e6473546869732066756e6374696f6e206973207265737472696374656420746f20746865206f776e6572a265627a7a723158208daf609fe09a84d2d4007e16423215428f40b30f3cefe458df1f40c70b80f68964736f6c634300050c0032",
  "source": "import \"./Ownable.sol\";\nimport\"./provableAPI.sol\";\n\npragma solidity ^0.5.12;\n\ncontract CoinFlip is Ownable{\n\n  event balanceUpdated (bool done);\n//  event LogNewProvableQuery (string queryRequested);\n  //event generatedRandomNumber (uint256 randomNumber);\n\n  bool done = true;\n\n  modifier costs (uint cost){\n      require (msg.value >= cost,\"Min bet is 0.5 Ether\");\n      _;\n  }\n\n  struct User {\n    bytes32 id;\n    address playerAddress;\n    uint choice;\n  }\n\n  mapping (bytes32 => User) private player;\n\n  function random () public view returns (uint){\n    return now % 2;\n  }\n\n  function flip (uint decision) public payable{\n    require (getContractValue () >= msg.value*2, \"Contract does not have enough funds\");\n    uint bet = msg.value;\n    //update(msg.sender, decision);\n    }\n\n  function getContractValue () public view returns (uint){\n    return address(this).balance;\n  }\n\n  function loadUpContract () public payable onlyOwner{\n    emit balanceUpdated(true);\n  }\n\n  function withdrawalAll () public onlyOwner {\n    msg.sender.transfer(getContractValue());\n    assert(getContractValue()==0);\n  }\n\n/*  function update(address cstAdss, uint cstDcsn) payable public {\n    uint256 QUERY_EXECUTION_DELAY = 0;\n    uint256 GAS_FOR_CALLBACK =200000;\n    bytes32 query_id = provable_newRandomDSQuery(QUERY_EXECUTION_DELAY, NUM_RANDOM_BYTES_REQUESTED, GAS_FOR_CALLBACK);\n\n    User memory newUser; //Popolo la struct;\n    newUser.playerAddress = cstAdss; //Popolo la struct;\n    newUser.choice = cstDcsn; //Popolo la struct;\n    player[query_id] = newUser; //Popolo la struct;\n\n    emit LogNewProvableQuery (\"Provable query was sent, waiting for the callback\");\n  }\n\n  function __callback(bytes32 _queryId, string memory _result, bytes memory _proof) public {\n    require (msg.sender == provable_cbAddress());\n\n    uint256 randomNumber = uint256(keccak256(abi.encodePacked(_result)))%2;\n    emit generatedRandomNumber (randomNumber); */\n  }\n",
  "sourcePath": "/Users/gabba/git/help/Test/contracts/CoinFlip.sol",
  "compiler": {
    "name": "solc",
    "version": "0.5.12+commit.7709ece9.Emscripten.clang"
  },
  "schemaVersion": "3.0.18-next.1",
  "updatedAt": "2020-02-08T05:49:32.369Z",
  "networkType": "ethereum",
  "devdoc": {
    "methods": {}
  },
  "userdoc": {
    "methods": {}
  }
}