{
  "contractName": "CoinFlip",
  "abi": [
    {
      "anonymous": false,
      "inputs": [
        {
          "indexed": false,
          "name": "done",
          "type": "bool"
        }
      ],
      "name": "balanceUpdated",
      "type": "event"
    },
    {
      "constant": true,
      "inputs": [],
      "name": "random",
      "outputs": [
        {
          "name": "",
          "type": "uint256"
        }
      ],
      "payable": false,
      "stateMutability": "view",
      "type": "function"
    },
    {
      "constant": false,
      "inputs": [
        {
          "name": "decision",
          "type": "uint256"
        }
      ],
      "name": "flip",
      "outputs": [],
      "payable": true,
      "stateMutability": "payable",
      "type": "function"
    },
    {
      "constant": true,
      "inputs": [],
      "name": "getContractValue",
      "outputs": [
        {
          "name": "",
          "type": "uint256"
        }
      ],
      "payable": false,
      "stateMutability": "view",
      "type": "function"
    },
    {
      "constant": false,
      "inputs": [],
      "name": "loadUpContract",
      "outputs": [],
      "payable": true,
      "stateMutability": "payable",
      "type": "function"
    },
    {
      "constant": false,
      "inputs": [],
      "name": "withdrawalAll",
      "outputs": [],
      "payable": false,
      "stateMutability": "nonpayable",
      "type": "function"
    }
  ],
  "bytecode": "0x60806040526001600060146101000a81548160ff021916908315150217905550336000806101000a81548173ffffffffffffffffffffffffffffffffffffffff021916908373ffffffffffffffffffffffffffffffffffffffff1602179055506104a78061006e6000396000f3fe608060405260043610610067576000357c010000000000000000000000000000000000000000000000000000000090048063221e885d1461006c5780635ec01e4d1461009a578063c464a558146100c5578063dc82697c146100cf578063f44b79b3146100fa575b600080fd5b6100986004803603602081101561008257600080fd5b8101908080359060200190929190505050610111565b005b3480156100a657600080fd5b506100af610200565b6040518082815260200191505060405180910390f35b6100cd610214565b005b3480156100db57600080fd5b506100e4610307565b6040518082815260200191505060405180910390f35b34801561010657600080fd5b5061010f610326565b005b6611c37937e08000803410151515610191576040517f08c379a00000000000000000000000000000000000000000000000000000000081526004018080602001828103825260148152602001807f4d696e2062657420697320302e3520457468657200000000000000000000000081525060200191505060405180910390fd5b6002340261019d610307565b101515156101f6576040517f08c379a00000000000000000000000000000000000000000000000000000000081526004018080602001828103825260238152602001806104316023913960400191505060405180910390fd5b6000349050505050565b600060024281151561020e57fe5b06905090565b6000809054906101000a900473ffffffffffffffffffffffffffffffffffffffff1673ffffffffffffffffffffffffffffffffffffffff163373ffffffffffffffffffffffffffffffffffffffff161415156102bb576040517f08c379a00000000000000000000000000000000000000000000000000000000081526004018080602001828103825260288152602001806104546028913960400191505060405180910390fd5b7f1254048a43a2283f2900f8d5ebbf165a6cc889e8054ffee6bf1b942a429c7e63600060149054906101000a900460ff16604051808215151515815260200191505060405180910390a1565b60003073ffffffffffffffffffffffffffffffffffffffff1631905090565b6000809054906101000a900473ffffffffffffffffffffffffffffffffffffffff1673ffffffffffffffffffffffffffffffffffffffff163373ffffffffffffffffffffffffffffffffffffffff161415156103cd576040517f08c379a00000000000000000000000000000000000000000000000000000000081526004018080602001828103825260288152602001806104546028913960400191505060405180910390fd5b3373ffffffffffffffffffffffffffffffffffffffff166108fc6103ef610307565b9081150290604051600060405180830381858888f1935050505015801561041a573d6000803e3d6000fd5b506000610425610307565b14151561042e57fe5b56fe436f6e747261637420646f6573206e6f74206861766520656e6f7567682066756e6473546869732066756e6374696f6e206973207265737472696374656420746f20746865206f776e6572a165627a7a723058201e3c5baf032645856c2d7257ac8af64b09b3b14c46d83f27121ed4994fd23e6a0029",
  "source": "import \"./Ownable.sol\";\nimport\"./provableAPI.sol\";\n\npragma solidity 0.5.2;\n\ncontract CoinFlip is Ownable{\n\n  //uint256 NUM_RANDOM_BYTES_REQUESTED = 1;\n\n  event balanceUpdated (bool done);\n//  event LogNewProvableQuery (string queryRequested);\n  //event generatedRandomNumber (uint256 randomNumber);\n\n  bool done = true;\n\n  modifier costs (uint cost){\n      require (msg.value >= cost,\"Min bet is 0.5 Ether\");\n      _;\n  }\n\n  struct User {\n    bytes32 id;\n    address playerAddress;\n    uint choice;\n  }\n\n  mapping (bytes32 => User) private player;\n\n  function random () public view returns (uint){\n    return now % 2;\n  }\n\n  function flip (uint decision) public payable costs (5000000000000000 wei){\n    require (getContractValue () >= msg.value*2, \"Contract does not have enough funds\");\n    uint bet = msg.value;\n    //update(msg.sender, decision);\n    }\n\n  function getContractValue () public view returns (uint){\n    return address(this).balance;\n  }\n\n  function loadUpContract () public payable onlyOwner{\n    emit balanceUpdated(done);\n  }\n\n  function withdrawalAll () public onlyOwner {\n    msg.sender.transfer(getContractValue());\n    assert(getContractValue()==0);\n  }\n\n/*  function update(address cstAdss, uint cstDcsn) payable public {\n    uint256 QUERY_EXECUTION_DELAY = 0;\n    uint256 GAS_FOR_CALLBACK =200000;\n    bytes32 query_id = provable_newRandomDSQuery(QUERY_EXECUTION_DELAY, NUM_RANDOM_BYTES_REQUESTED, GAS_FOR_CALLBACK);\n\n    User memory newUser; //Popolo la struct;\n    newUser.playerAddress = cstAdss; //Popolo la struct;\n    newUser.choice = cstDcsn; //Popolo la struct;\n    player[query_id] = newUser; //Popolo la struct;\n\n    emit LogNewProvableQuery (\"Provable query was sent, waiting for the callback\");\n  }\n\n  function __callback(bytes32 _queryId, string memory _result, bytes memory _proof) public {\n    require (msg.sender == provable_cbAddress());\n\n    uint256 randomNumber = uint256(keccak256(abi.encodePacked(_result)))%2;\n    emit generatedRandomNumber (randomNumber); */\n  }\n",
  "sourcePath": "/Users/danielemartinelli/Documents/Code/SolidityAdvanced/Test/contracts/coinFlip.sol",
  "compiler": {
    "name": "solc",
    "version": "0.5.2+commit.1df8f40c.Emscripten.clang"
  },
  "schemaVersion": "3.0.23",
  "updatedAt": "2020-02-07T19:27:30.363Z",
  "devdoc": {
    "methods": {}
  },
  "userdoc": {
    "methods": {}
  }
}